:020000020000FC
:100000000C9434000C9475000C9477000C947900D7
:100010000C947B000C947D000C947F000C94C30026
:100020000C94C9000C94D9000C9487000C9489009E
:100030000C94BF000C94C1000C9481000C948300BC
:100040000C9485000C9407010C9409010C940B018D
:100050000C940D010C940F010C9411010C941301DC
:100060000C9415010C9417010FEF0DBF08E00EBFA3
:10007000002704B90FEF07B90AB90AE008B905E586
:100080000BB903E0009389000DE00093880002E0C3
:1000900000936F000DE0009381000FEF0093B30019
:1000A0000CE80093B40001E00093700001E00093BD
:1000B000B100222753E66627F1E0E0E002E1019378
:1000C0000193019300E801930193008378941F9BAF
:1000D0000C9434001F9BFBCF002700936F001C99EA
:1000E000FECF02E000936F00F2CF000018950000F1
:1000F000189500001895000018950000189500004C
:10010000189500001895000018950000189500003B
:10011000189521E003B10370033021F1F1E0E0E034
:10012000E00FED5F00811A9903C01B990EC018956E
:10013000003EE9F303950083E350008101FD006276
:1001400001FF0F7D069500831895003281F30A9513
:100150000083E350008104FD016004FF0E7F000F67
:10016000008318951A9903C01B9905C01895553A34
:10017000E9F3539518955032C9F35A951895000034
:1001800018950000189506B1017E08B900270BB933
:1001900018957395309902C0309B02C0409802C0F8
:1001A000409A00C073FF1895772703E00093700012
:1001B0001895F1E0E0E001913AE016E003FD312707
:1001C00018E102FD3127019145E510E303FF4127C6
:1001D00010EC02FF4127008113E003FD41271CE0E2
:1001E00002FD412706B1017E302B38B94BB970FFB3
:1001F00005C07395409A07E000937000203031F0FD
:100200002395459A251710F0222745981895000048
:10021000189500001895000018950000189500002A
:10022000189500001895000018950000189500001A
:0202300018951F
:00000001FF
